{
  "_format": "hh-sol-artifact-1",
  "contractName": "DirectDeposit",
  "sourceName": "contracts/DirectPayment.sol",
  "abi": [
    {
      "inputs": [],
      "stateMutability": "nonpayable",
      "type": "constructor"
    },
    {
      "anonymous": false,
      "inputs": [
        {
          "indexed": true,
          "internalType": "address",
          "name": "sender",
          "type": "address"
        },
        {
          "indexed": false,
          "internalType": "uint256",
          "name": "amount",
          "type": "uint256"
        }
      ],
      "name": "Deposit",
      "type": "event"
    },
    {
      "anonymous": false,
      "inputs": [
        {
          "indexed": false,
          "internalType": "address",
          "name": "",
          "type": "address"
        },
        {
          "indexed": false,
          "internalType": "uint256",
          "name": "",
          "type": "uint256"
        }
      ],
      "name": "Received",
      "type": "event"
    },
    {
      "anonymous": false,
      "inputs": [
        {
          "indexed": true,
          "internalType": "address",
          "name": "sender",
          "type": "address"
        },
        {
          "indexed": false,
          "internalType": "uint256",
          "name": "amount",
          "type": "uint256"
        }
      ],
      "name": "Withdraw",
      "type": "event"
    },
    {
      "inputs": [],
      "name": "bob",
      "outputs": [
        {
          "internalType": "contract IERC677",
          "name": "",
          "type": "address"
        }
      ],
      "stateMutability": "view",
      "type": "function"
    },
    {
      "inputs": [
        {
          "internalType": "uint256",
          "name": "_amount",
          "type": "uint256"
        },
        {
          "internalType": "string",
          "name": "_zkAddress",
          "type": "string"
        }
      ],
      "name": "directDeposit",
      "outputs": [],
      "stateMutability": "nonpayable",
      "type": "function"
    },
    {
      "inputs": [],
      "name": "fallbackReceiver",
      "outputs": [
        {
          "internalType": "address",
          "name": "",
          "type": "address"
        }
      ],
      "stateMutability": "view",
      "type": "function"
    },
    {
      "inputs": [],
      "name": "owner",
      "outputs": [
        {
          "internalType": "address",
          "name": "",
          "type": "address"
        }
      ],
      "stateMutability": "view",
      "type": "function"
    },
    {
      "inputs": [
        {
          "internalType": "uint256",
          "name": "_amount",
          "type": "uint256"
        },
        {
          "internalType": "string",
          "name": "_address",
          "type": "string"
        }
      ],
      "name": "tryPool",
      "outputs": [],
      "stateMutability": "nonpayable",
      "type": "function"
    },
    {
      "inputs": [
        {
          "internalType": "uint256",
          "name": "_amount",
          "type": "uint256"
        },
        {
          "internalType": "string",
          "name": "_address",
          "type": "string"
        }
      ],
      "name": "tryPool2",
      "outputs": [],
      "stateMutability": "nonpayable",
      "type": "function"
    }
  ],
  "bytecode": "0x6080604052732c74b18e2f84b78ac67428d0c7a9898515f0c46f6000806101000a81548173ffffffffffffffffffffffffffffffffffffffff021916908373ffffffffffffffffffffffffffffffffffffffff160217905550732c74b18e2f84b78ac67428d0c7a9898515f0c46f600160006101000a81548173ffffffffffffffffffffffffffffffffffffffff021916908373ffffffffffffffffffffffffffffffffffffffff16021790555073e3dd183ffa70bcfc442a0b9991e682ca8a442ade600260006101000a81548173ffffffffffffffffffffffffffffffffffffffff021916908373ffffffffffffffffffffffffffffffffffffffff16021790555034801561010e57600080fd5b5033600460006101000a81548173ffffffffffffffffffffffffffffffffffffffff021916908373ffffffffffffffffffffffffffffffffffffffff16021790555033600360006101000a81548173ffffffffffffffffffffffffffffffffffffffff021916908373ffffffffffffffffffffffffffffffffffffffff160217905550611190806101a06000396000f3fe608060405234801561001057600080fd5b50600436106100625760003560e01c80630e45622a14610067578063222407ff146100835780638da5cb5b1461009f5780639c96f650146100bd578063c09cec77146100d9578063f2269521146100f7575b600080fd5b610081600480360381019061007c9190610b5d565b610115565b005b61009d60048036038101906100989190610b5d565b610262565b005b6100a7610465565b6040516100b49190610d09565b60405180910390f35b6100d760048036038101906100d29190610afd565b61048b565b005b6100e16104df565b6040516100ee9190610df2565b60405180910390f35b6100ff610503565b60405161010c9190610d09565b60405180910390f35b6000819050610169333085600160009054906101000a900473ffffffffffffffffffffffffffffffffffffffff1673ffffffffffffffffffffffffffffffffffffffff16610529909392919063ffffffff16565b60008054906101000a900473ffffffffffffffffffffffffffffffffffffffff1673ffffffffffffffffffffffffffffffffffffffff16634000aea0600260009054906101000a900473ffffffffffffffffffffffffffffffffffffffff1685600360009054906101000a900473ffffffffffffffffffffffffffffffffffffffff16856040516020016101fe929190610d5b565b6040516020818303038152906040526040518463ffffffff1660e01b815260040161022b93929190610db4565b600060405180830381600087803b15801561024557600080fd5b505af1158015610259573d6000803e3d6000fd5b50505050505050565b6000819050600160009054906101000a900473ffffffffffffffffffffffffffffffffffffffff1673ffffffffffffffffffffffffffffffffffffffff1663095ea7b3600260009054906101000a900473ffffffffffffffffffffffffffffffffffffffff16856040518363ffffffff1660e01b81526004016102e6929190610d8b565b602060405180830381600087803b15801561030057600080fd5b505af1158015610314573d6000803e3d6000fd5b505050506040513d601f19601f820116820180604052508101906103389190610aa3565b50610388333085600160009054906101000a900473ffffffffffffffffffffffffffffffffffffffff1673ffffffffffffffffffffffffffffffffffffffff16610529909392919063ffffffff16565b6000600260009054906101000a900473ffffffffffffffffffffffffffffffffffffffff1673ffffffffffffffffffffffffffffffffffffffff166302592d37600360009054906101000a900473ffffffffffffffffffffffffffffffffffffffff1686856040518463ffffffff1660e01b815260040161040b93929190610db4565b602060405180830381600087803b15801561042557600080fd5b505af1158015610439573d6000803e3d6000fd5b505050506040513d601f19601f8201168201806040525081019061045d9190610ad0565b905050505050565b600460009054906101000a900473ffffffffffffffffffffffffffffffffffffffff1681565b6104da338484848080601f016020809104026020016040519081016040528093929190818152602001838380828437600081840152601f19601f820116905080830192505050505050506105b2565b505050565b60008054906101000a900473ffffffffffffffffffffffffffffffffffffffff1681565b600360009054906101000a900473ffffffffffffffffffffffffffffffffffffffff1681565b6105ac846323b872dd60e01b85858560405160240161054a93929190610d24565b604051602081830303815290604052907bffffffffffffffffffffffffffffffffffffffffffffffffffffffff19166020820180517bffffffffffffffffffffffffffffffffffffffffffffffffffffffff8381831617835250505050610610565b50505050565b610601333084600160009054906101000a900473ffffffffffffffffffffffffffffffffffffffff1673ffffffffffffffffffffffffffffffffffffffff16610529909392919063ffffffff16565b61060b82826106d8565b505050565b6000610672826040518060400160405280602081526020017f5361666545524332303a206c6f772d6c6576656c2063616c6c206661696c65648152508573ffffffffffffffffffffffffffffffffffffffff166107d09092919063ffffffff16565b90506000815114806106945750808060200190518101906106939190610aa3565b5b6106d3576040517f08c379a00000000000000000000000000000000000000000000000000000000081526004016106ca90610e6f565b60405180910390fd5b505050565b60008054906101000a900473ffffffffffffffffffffffffffffffffffffffff1673ffffffffffffffffffffffffffffffffffffffff16634000aea0600260009054906101000a900473ffffffffffffffffffffffffffffffffffffffff1684600360009054906101000a900473ffffffffffffffffffffffffffffffffffffffff168560405160200161076d929190610d5b565b6040516020818303038152906040526040518463ffffffff1660e01b815260040161079a93929190610db4565b600060405180830381600087803b1580156107b457600080fd5b505af11580156107c8573d6000803e3d6000fd5b505050505050565b60606107df84846000856107e8565b90509392505050565b60608247101561082d576040517f08c379a000000000000000000000000000000000000000000000000000000000815260040161082490610e2f565b60405180910390fd5b6000808673ffffffffffffffffffffffffffffffffffffffff1685876040516108569190610cf2565b60006040518083038185875af1925050503d8060008114610893576040519150601f19603f3d011682016040523d82523d6000602084013e610898565b606091505b50915091506108a9878383876108b5565b92505050949350505050565b6060831561091857600083511415610910576108d08561092b565b61090f576040517f08c379a000000000000000000000000000000000000000000000000000000000815260040161090690610e4f565b60405180910390fd5b5b829050610923565b610922838361094e565b5b949350505050565b6000808273ffffffffffffffffffffffffffffffffffffffff163b119050919050565b6000825111156109615781518083602001fd5b806040517f08c379a00000000000000000000000000000000000000000000000000000000081526004016109959190610e0d565b60405180910390fd5b60006109b16109ac84610eb4565b610e8f565b9050828152602081018484840111156109cd576109cc611045565b5b6109d8848285610f94565b509392505050565b6000815190506109ef8161112c565b92915050565b60008083601f840112610a0b57610a0a61103b565b5b8235905067ffffffffffffffff811115610a2857610a27611036565b5b602083019150836001820283011115610a4457610a43611040565b5b9250929050565b600082601f830112610a6057610a5f61103b565b5b8135610a7084826020860161099e565b91505092915050565b600081359050610a8881611143565b92915050565b600081519050610a9d81611143565b92915050565b600060208284031215610ab957610ab861104f565b5b6000610ac7848285016109e0565b91505092915050565b600060208284031215610ae657610ae561104f565b5b6000610af484828501610a8e565b91505092915050565b600080600060408486031215610b1657610b1561104f565b5b6000610b2486828701610a79565b935050602084013567ffffffffffffffff811115610b4557610b4461104a565b5b610b51868287016109f5565b92509250509250925092565b60008060408385031215610b7457610b7361104f565b5b6000610b8285828601610a79565b925050602083013567ffffffffffffffff811115610ba357610ba261104a565b5b610baf85828601610a4b565b9150509250929050565b610bc281610f28565b82525050565b6000610bd382610ee5565b610bdd8185610efb565b9350610bed818560208601610fa3565b610bf681611054565b840191505092915050565b6000610c0c82610ee5565b610c168185610f0c565b9350610c26818560208601610fa3565b80840191505092915050565b610c3b81610f70565b82525050565b6000610c4c82610ef0565b610c568185610f17565b9350610c66818560208601610fa3565b610c6f81611054565b840191505092915050565b6000610c87602683610f17565b9150610c9282611065565b604082019050919050565b6000610caa601d83610f17565b9150610cb5826110b4565b602082019050919050565b6000610ccd602a83610f17565b9150610cd8826110dd565b604082019050919050565b610cec81610f66565b82525050565b6000610cfe8284610c01565b915081905092915050565b6000602082019050610d1e6000830184610bb9565b92915050565b6000606082019050610d396000830186610bb9565b610d466020830185610bb9565b610d536040830184610ce3565b949350505050565b6000604082019050610d706000830185610bb9565b8181036020830152610d828184610bc8565b90509392505050565b6000604082019050610da06000830185610bb9565b610dad6020830184610ce3565b9392505050565b6000606082019050610dc96000830186610bb9565b610dd66020830185610ce3565b8181036040830152610de88184610bc8565b9050949350505050565b6000602082019050610e076000830184610c32565b92915050565b60006020820190508181036000830152610e278184610c41565b905092915050565b60006020820190508181036000830152610e4881610c7a565b9050919050565b60006020820190508181036000830152610e6881610c9d565b9050919050565b60006020820190508181036000830152610e8881610cc0565b9050919050565b6000610e99610eaa565b9050610ea58282610fd6565b919050565b6000604051905090565b600067ffffffffffffffff821115610ecf57610ece611007565b5b610ed882611054565b9050602081019050919050565b600081519050919050565b600081519050919050565b600082825260208201905092915050565b600081905092915050565b600082825260208201905092915050565b6000610f3382610f46565b9050919050565b60008115159050919050565b600073ffffffffffffffffffffffffffffffffffffffff82169050919050565b6000819050919050565b6000610f7b82610f82565b9050919050565b6000610f8d82610f46565b9050919050565b82818337600083830152505050565b60005b83811015610fc1578082015181840152602081019050610fa6565b83811115610fd0576000848401525b50505050565b610fdf82611054565b810181811067ffffffffffffffff82111715610ffe57610ffd611007565b5b80604052505050565b7f4e487b7100000000000000000000000000000000000000000000000000000000600052604160045260246000fd5b600080fd5b600080fd5b600080fd5b600080fd5b600080fd5b600080fd5b6000601f19601f8301169050919050565b7f416464726573733a20696e73756666696369656e742062616c616e636520666f60008201527f722063616c6c0000000000000000000000000000000000000000000000000000602082015250565b7f416464726573733a2063616c6c20746f206e6f6e2d636f6e7472616374000000600082015250565b7f5361666545524332303a204552433230206f7065726174696f6e20646964206e60008201527f6f74207375636365656400000000000000000000000000000000000000000000602082015250565b61113581610f3a565b811461114057600080fd5b50565b61114c81610f66565b811461115757600080fd5b5056fea2646970667358221220d62455b884adda443cbc23d6a8ca2e5596ec87b3227429cfedbe42050caa7f3864736f6c63430008060033",
  "linkReferences": {},
  "deployedLinkReferences": {}
}