{
  "_format": "hh-sol-artifact-1",
  "contractName": "Campaign",
  "sourceName": "contracts/Campaign.sol",
  "abi": [
    {
      "inputs": [],
      "stateMutability": "nonpayable",
      "type": "constructor"
    },
    {
      "inputs": [],
      "name": "InvalidNullifier",
      "type": "error"
    },
    {
      "inputs": [
        {
          "internalType": "uint256",
          "name": "_campaignId",
          "type": "uint256"
        }
      ],
      "name": "balance",
      "outputs": [
        {
          "internalType": "uint256",
          "name": "",
          "type": "uint256"
        }
      ],
      "stateMutability": "view",
      "type": "function"
    },
    {
      "inputs": [],
      "name": "campaignCount",
      "outputs": [
        {
          "internalType": "uint256",
          "name": "",
          "type": "uint256"
        }
      ],
      "stateMutability": "view",
      "type": "function"
    },
    {
      "inputs": [
        {
          "internalType": "uint256",
          "name": "",
          "type": "uint256"
        }
      ],
      "name": "campaigns",
      "outputs": [
        {
          "internalType": "uint256",
          "name": "id",
          "type": "uint256"
        },
        {
          "internalType": "address",
          "name": "creator",
          "type": "address"
        },
        {
          "internalType": "string",
          "name": "title",
          "type": "string"
        },
        {
          "internalType": "string",
          "name": "description",
          "type": "string"
        },
        {
          "internalType": "string",
          "name": "wallet",
          "type": "string"
        },
        {
          "internalType": "string",
          "name": "ipfs",
          "type": "string"
        },
        {
          "internalType": "uint256",
          "name": "money",
          "type": "uint256"
        }
      ],
      "stateMutability": "view",
      "type": "function"
    },
    {
      "inputs": [
        {
          "internalType": "string",
          "name": "_title",
          "type": "string"
        },
        {
          "internalType": "string",
          "name": "_description",
          "type": "string"
        },
        {
          "internalType": "string",
          "name": "_wallet",
          "type": "string"
        },
        {
          "internalType": "string",
          "name": "_ipfs",
          "type": "string"
        },
        {
          "internalType": "uint256",
          "name": "_money",
          "type": "uint256"
        }
      ],
      "name": "createCampaign",
      "outputs": [
        {
          "internalType": "uint256",
          "name": "",
          "type": "uint256"
        }
      ],
      "stateMutability": "nonpayable",
      "type": "function"
    },
    {
      "inputs": [
        {
          "internalType": "uint256",
          "name": "_campaignId",
          "type": "uint256"
        }
      ],
      "name": "getCampaign",
      "outputs": [
        {
          "internalType": "uint256",
          "name": "",
          "type": "uint256"
        },
        {
          "internalType": "address",
          "name": "",
          "type": "address"
        },
        {
          "internalType": "string",
          "name": "",
          "type": "string"
        },
        {
          "internalType": "string",
          "name": "",
          "type": "string"
        },
        {
          "internalType": "string",
          "name": "",
          "type": "string"
        },
        {
          "internalType": "string",
          "name": "",
          "type": "string"
        },
        {
          "internalType": "uint256",
          "name": "",
          "type": "uint256"
        }
      ],
      "stateMutability": "view",
      "type": "function"
    },
    {
      "inputs": [],
      "name": "owner",
      "outputs": [
        {
          "internalType": "address",
          "name": "",
          "type": "address"
        }
      ],
      "stateMutability": "view",
      "type": "function"
    },
    {
      "inputs": [
        {
          "internalType": "uint256",
          "name": "_campaignId",
          "type": "uint256"
        },
        {
          "internalType": "uint256",
          "name": "_amount",
          "type": "uint256"
        }
      ],
      "name": "updateAmount",
      "outputs": [],
      "stateMutability": "nonpayable",
      "type": "function"
    },
    {
      "inputs": [],
      "name": "verifyAndExcute",
      "outputs": [
        {
          "internalType": "bool",
          "name": "",
          "type": "bool"
        }
      ],
      "stateMutability": "nonpayable",
      "type": "function"
    },
    {
      "inputs": [
        {
          "internalType": "address",
          "name": "signal",
          "type": "address"
        },
        {
          "internalType": "uint256",
          "name": "root",
          "type": "uint256"
        },
        {
          "internalType": "uint256",
          "name": "nullifierHash",
          "type": "uint256"
        },
        {
          "internalType": "uint256[8]",
          "name": "proof",
          "type": "uint256[8]"
        }
      ],
      "name": "verifyAndExecute",
      "outputs": [],
      "stateMutability": "nonpayable",
      "type": "function"
    }
  ],
  "bytecode": "0x60806040526000600255600160065534801561001a57600080fd5b50336000806101000a81548173ffffffffffffffffffffffffffffffffffffffff021916908373ffffffffffffffffffffffffffffffffffffffff1602179055506117758061006a6000396000f3fe608060405234801561001057600080fd5b50600436106100935760003560e01c80637274e30d116100665780637274e30d146101505780637a2453d91461016e5780638da5cb5b1461019e578063b061fdf9146101bc578063e9b70553146101da57610093565b80630179cc5214610098578063141961bc146100b457806347bb89f0146100ea5780635598f8cc1461011a575b600080fd5b6100b260048036038101906100ad919061113a565b6101f6565b005b6100ce60048036038101906100c9919061110d565b6102b5565b6040516100e197969594939291906112ff565b60405180910390f35b61010460048036038101906100ff919061110d565b610537565b60405161011191906112e4565b60405180910390f35b610134600480360381019061012f919061110d565b610819565b60405161014797969594939291906112ff565b60405180910390f35b610158610b34565b60405161016591906112e4565b60405180910390f35b61018860048036038101906101839190611022565b610b3a565b60405161019591906112e4565b60405180910390f35b6101a6610c94565b6040516101b3919061128e565b60405180910390f35b6101c4610cb8565b6040516101d191906112a9565b60405180910390f35b6101f460048036038101906101ef9190610fba565b610cda565b005b60008054906101000a900473ffffffffffffffffffffffffffffffffffffffff1673ffffffffffffffffffffffffffffffffffffffff163373ffffffffffffffffffffffffffffffffffffffff1614610284576040517f08c379a000000000000000000000000000000000000000000000000000000000815260040161027b906112c4565b60405180910390fd5b806003600084815260200190815260200160002060060160008282546102aa9190611474565b925050819055505050565b60036020528060005260406000206000915090508060000154908060010160009054906101000a900473ffffffffffffffffffffffffffffffffffffffff169080600201805461030490611554565b80601f016020809104026020016040519081016040528092919081815260200182805461033090611554565b801561037d5780601f106103525761010080835404028352916020019161037d565b820191906000526020600020905b81548152906001019060200180831161036057829003601f168201915b50505050509080600301805461039290611554565b80601f01602080910402602001604051908101604052809291908181526020018280546103be90611554565b801561040b5780601f106103e05761010080835404028352916020019161040b565b820191906000526020600020905b8154815290600101906020018083116103ee57829003601f168201915b50505050509080600401805461042090611554565b80601f016020809104026020016040519081016040528092919081815260200182805461044c90611554565b80156104995780601f1061046e57610100808354040283529160200191610499565b820191906000526020600020905b81548152906001019060200180831161047c57829003601f168201915b5050505050908060050180546104ae90611554565b80601f01602080910402602001604051908101604052809291908181526020018280546104da90611554565b80156105275780601f106104fc57610100808354040283529160200191610527565b820191906000526020600020905b81548152906001019060200180831161050a57829003601f168201915b5050505050908060060154905087565b600080600360008481526020019081526020016000206040518060e0016040529081600082015481526020016001820160009054906101000a900473ffffffffffffffffffffffffffffffffffffffff1673ffffffffffffffffffffffffffffffffffffffff1673ffffffffffffffffffffffffffffffffffffffff1681526020016002820180546105c890611554565b80601f01602080910402602001604051908101604052809291908181526020018280546105f490611554565b80156106415780601f1061061657610100808354040283529160200191610641565b820191906000526020600020905b81548152906001019060200180831161062457829003601f168201915b5050505050815260200160038201805461065a90611554565b80601f016020809104026020016040519081016040528092919081815260200182805461068690611554565b80156106d35780601f106106a8576101008083540402835291602001916106d3565b820191906000526020600020905b8154815290600101906020018083116106b657829003601f168201915b505050505081526020016004820180546106ec90611554565b80601f016020809104026020016040519081016040528092919081815260200182805461071890611554565b80156107655780601f1061073a57610100808354040283529160200191610765565b820191906000526020600020905b81548152906001019060200180831161074857829003601f168201915b5050505050815260200160058201805461077e90611554565b80601f01602080910402602001604051908101604052809291908181526020018280546107aa90611554565b80156107f75780601f106107cc576101008083540402835291602001916107f7565b820191906000526020600020905b8154815290600101906020018083116107da57829003601f168201915b5050505050815260200160068201548152505090508060c00151915050919050565b600080606080606080600080600360008a81526020019081526020016000206040518060e0016040529081600082015481526020016001820160009054906101000a900473ffffffffffffffffffffffffffffffffffffffff1673ffffffffffffffffffffffffffffffffffffffff1673ffffffffffffffffffffffffffffffffffffffff1681526020016002820180546108b390611554565b80601f01602080910402602001604051908101604052809291908181526020018280546108df90611554565b801561092c5780601f106109015761010080835404028352916020019161092c565b820191906000526020600020905b81548152906001019060200180831161090f57829003601f168201915b5050505050815260200160038201805461094590611554565b80601f016020809104026020016040519081016040528092919081815260200182805461097190611554565b80156109be5780601f10610993576101008083540402835291602001916109be565b820191906000526020600020905b8154815290600101906020018083116109a157829003601f168201915b505050505081526020016004820180546109d790611554565b80601f0160208091040260200160405190810160405280929190818152602001828054610a0390611554565b8015610a505780601f10610a2557610100808354040283529160200191610a50565b820191906000526020600020905b815481529060010190602001808311610a3357829003601f168201915b50505050508152602001600582018054610a6990611554565b80601f0160208091040260200160405190810160405280929190818152602001828054610a9590611554565b8015610ae25780601f10610ab757610100808354040283529160200191610ae2565b820191906000526020600020905b815481529060010190602001808311610ac557829003601f168201915b505050505081526020016006820154815250509050806000015181602001518260400151836060015184608001518560a001518660c00151975097509750975097509750975050919395979092949650565b60025481565b600060026000815480929190610b4f906115b7565b91905055506040518060e0016040528060025481526020013373ffffffffffffffffffffffffffffffffffffffff168152602001878152602001868152602001858152602001848152602001838152506003600060025481526020019081526020016000206000820151816000015560208201518160010160006101000a81548173ffffffffffffffffffffffffffffffffffffffff021916908373ffffffffffffffffffffffffffffffffffffffff1602179055506040820151816002019080519060200190610c21929190610e5b565b506060820151816003019080519060200190610c3e929190610e5b565b506080820151816004019080519060200190610c5b929190610e5b565b5060a0820151816005019080519060200190610c78929190610e5b565b5060c08201518160060155905050600254905095945050505050565b60008054906101000a900473ffffffffffffffffffffffffffffffffffffffff1681565b60006001806000828254610ccc9190611474565b925050819055506001905090565b6007600083815260200190815260200160002060009054906101000a900460ff1615610d32576040517f5d904cb200000000000000000000000000000000000000000000000000000000815260040160405180910390fd5b600460009054906101000a900473ffffffffffffffffffffffffffffffffffffffff1673ffffffffffffffffffffffffffffffffffffffff16633bc778e384600654610d9c88604051602001610d88919061125c565b604051602081830303815290604052610e24565b86600554876040518763ffffffff1660e01b8152600401610dc29695949392919061138a565b60006040518083038186803b158015610dda57600080fd5b505afa158015610dee573d6000803e3d6000fd5b5050505060016007600084815260200190815260200160002060006101000a81548160ff02191690831515021790555050505050565b6000600882604051602001610e399190611277565b6040516020818303038152906040528051906020012060001c901c9050919050565b828054610e6790611554565b90600052602060002090601f016020900481019282610e895760008555610ed0565b82601f10610ea257805160ff1916838001178555610ed0565b82800160010185558215610ed0579182015b82811115610ecf578251825591602001919060010190610eb4565b5b509050610edd9190610ee1565b5090565b5b80821115610efa576000816000905550600101610ee2565b5090565b6000610f11610f0c84611411565b6113ec565b905082815260208101848484011115610f2d57610f2c6116bb565b5b610f38848285611512565b509392505050565b600081359050610f4f81611711565b92915050565b600081905082602060080282011115610f7157610f706116b6565b5b92915050565b600082601f830112610f8c57610f8b6116b1565b5b8135610f9c848260208601610efe565b91505092915050565b600081359050610fb481611728565b92915050565b6000806000806101608587031215610fd557610fd46116c5565b5b6000610fe387828801610f40565b9450506020610ff487828801610fa5565b935050604061100587828801610fa5565b925050606061101687828801610f55565b91505092959194509250565b600080600080600060a0868803121561103e5761103d6116c5565b5b600086013567ffffffffffffffff81111561105c5761105b6116c0565b5b61106888828901610f77565b955050602086013567ffffffffffffffff811115611089576110886116c0565b5b61109588828901610f77565b945050604086013567ffffffffffffffff8111156110b6576110b56116c0565b5b6110c288828901610f77565b935050606086013567ffffffffffffffff8111156110e3576110e26116c0565b5b6110ef88828901610f77565b925050608061110088828901610fa5565b9150509295509295909350565b600060208284031215611123576111226116c5565b5b600061113184828501610fa5565b91505092915050565b60008060408385031215611151576111506116c5565b5b600061115f85828601610fa5565b925050602061117085828601610fa5565b9150509250929050565b611183816114ca565b82525050565b61119a611195826114ca565b611600565b82525050565b6111ad6101008383611512565b5050565b6111ba816114dc565b82525050565b60006111cb82611442565b6111d58185611458565b93506111e5818560208601611521565b80840191505092915050565b60006111fc8261144d565b6112068185611463565b9350611216818560208601611521565b61121f816116ca565b840191505092915050565b6000611237600983611463565b9150611242826116e8565b602082019050919050565b61125681611508565b82525050565b60006112688284611189565b60148201915081905092915050565b600061128382846111c0565b915081905092915050565b60006020820190506112a3600083018461117a565b92915050565b60006020820190506112be60008301846111b1565b92915050565b600060208201905081810360008301526112dd8161122a565b9050919050565b60006020820190506112f9600083018461124d565b92915050565b600060e082019050611314600083018a61124d565b611321602083018961117a565b818103604083015261133381886111f1565b9050818103606083015261134781876111f1565b9050818103608083015261135b81866111f1565b905081810360a083015261136f81856111f1565b905061137e60c083018461124d565b98975050505050505050565b60006101a0820190506113a0600083018961124d565b6113ad602083018861124d565b6113ba604083018761124d565b6113c7606083018661124d565b6113d4608083018561124d565b6113e160a08301846111a0565b979650505050505050565b60006113f6611407565b90506114028282611586565b919050565b6000604051905090565b600067ffffffffffffffff82111561142c5761142b611682565b5b611435826116ca565b9050602081019050919050565b600081519050919050565b600081519050919050565b600081905092915050565b600082825260208201905092915050565b600061147f82611508565b915061148a83611508565b9250827fffffffffffffffffffffffffffffffffffffffffffffffffffffffffffffffff038211156114bf576114be611624565b5b828201905092915050565b60006114d5826114e8565b9050919050565b60008115159050919050565b600073ffffffffffffffffffffffffffffffffffffffff82169050919050565b6000819050919050565b82818337600083830152505050565b60005b8381101561153f578082015181840152602081019050611524565b8381111561154e576000848401525b50505050565b6000600282049050600182168061156c57607f821691505b602082108114156115805761157f611653565b5b50919050565b61158f826116ca565b810181811067ffffffffffffffff821117156115ae576115ad611682565b5b80604052505050565b60006115c282611508565b91507fffffffffffffffffffffffffffffffffffffffffffffffffffffffffffffffff8214156115f5576115f4611624565b5b600182019050919050565b600061160b82611612565b9050919050565b600061161d826116db565b9050919050565b7f4e487b7100000000000000000000000000000000000000000000000000000000600052601160045260246000fd5b7f4e487b7100000000000000000000000000000000000000000000000000000000600052602260045260246000fd5b7f4e487b7100000000000000000000000000000000000000000000000000000000600052604160045260246000fd5b600080fd5b600080fd5b600080fd5b600080fd5b600080fd5b6000601f19601f8301169050919050565b60008160601b9050919050565b7f4e6f74206f776e65720000000000000000000000000000000000000000000000600082015250565b61171a816114ca565b811461172557600080fd5b50565b61173181611508565b811461173c57600080fd5b5056fea264697066735822122097732d687ac057d90dfa94a9f728325511b6641064549567f5fb47ba278b3e8f64736f6c63430008060033",
  "linkReferences": {},
  "deployedLinkReferences": {}
}