{
  "_format": "hh-sol-artifact-1",
  "contractName": "Campaign",
  "sourceName": "contracts/Campaign.sol",
  "abi": [
    {
      "inputs": [],
      "stateMutability": "nonpayable",
      "type": "constructor"
    },
    {
      "inputs": [],
      "name": "campaignCount",
      "outputs": [
        {
          "internalType": "uint256",
          "name": "",
          "type": "uint256"
        }
      ],
      "stateMutability": "view",
      "type": "function"
    },
    {
      "inputs": [
        {
          "internalType": "uint256",
          "name": "",
          "type": "uint256"
        }
      ],
      "name": "campaigns",
      "outputs": [
        {
          "internalType": "uint256",
          "name": "id",
          "type": "uint256"
        },
        {
          "internalType": "address",
          "name": "creator",
          "type": "address"
        },
        {
          "internalType": "string",
          "name": "title",
          "type": "string"
        },
        {
          "internalType": "string",
          "name": "description",
          "type": "string"
        },
        {
          "internalType": "string",
          "name": "wallet",
          "type": "string"
        },
        {
          "internalType": "string",
          "name": "ipfs",
          "type": "string"
        },
        {
          "internalType": "uint256",
          "name": "money",
          "type": "uint256"
        }
      ],
      "stateMutability": "view",
      "type": "function"
    },
    {
      "inputs": [
        {
          "internalType": "string",
          "name": "_title",
          "type": "string"
        },
        {
          "internalType": "string",
          "name": "_description",
          "type": "string"
        },
        {
          "internalType": "string",
          "name": "_wallet",
          "type": "string"
        },
        {
          "internalType": "string",
          "name": "_ipfs",
          "type": "string"
        },
        {
          "internalType": "uint256",
          "name": "_money",
          "type": "uint256"
        }
      ],
      "name": "createCampaign",
      "outputs": [
        {
          "internalType": "uint256",
          "name": "",
          "type": "uint256"
        }
      ],
      "stateMutability": "nonpayable",
      "type": "function"
    },
    {
      "inputs": [
        {
          "internalType": "uint256",
          "name": "_campaignId",
          "type": "uint256"
        }
      ],
      "name": "getCampaign",
      "outputs": [
        {
          "internalType": "uint256",
          "name": "",
          "type": "uint256"
        },
        {
          "internalType": "address",
          "name": "",
          "type": "address"
        },
        {
          "internalType": "string",
          "name": "",
          "type": "string"
        },
        {
          "internalType": "string",
          "name": "",
          "type": "string"
        },
        {
          "internalType": "string",
          "name": "",
          "type": "string"
        },
        {
          "internalType": "string",
          "name": "",
          "type": "string"
        },
        {
          "internalType": "uint256",
          "name": "",
          "type": "uint256"
        }
      ],
      "stateMutability": "view",
      "type": "function"
    },
    {
      "inputs": [],
      "name": "owner",
      "outputs": [
        {
          "internalType": "address",
          "name": "",
          "type": "address"
        }
      ],
      "stateMutability": "view",
      "type": "function"
    },
    {
      "inputs": [
        {
          "internalType": "uint256",
          "name": "_campaignId",
          "type": "uint256"
        },
        {
          "internalType": "uint256",
          "name": "_amount",
          "type": "uint256"
        }
      ],
      "name": "updateAmount",
      "outputs": [
        {
          "internalType": "uint256",
          "name": "",
          "type": "uint256"
        }
      ],
      "stateMutability": "view",
      "type": "function"
    }
  ],
  "bytecode": "0x6080604052600060015534801561001557600080fd5b50336000806101000a81548173ffffffffffffffffffffffffffffffffffffffff021916908373ffffffffffffffffffffffffffffffffffffffff160217905550611311806100656000396000f3fe608060405234801561001057600080fd5b50600436106100625760003560e01c80630179cc5214610067578063141961bc146100975780635598f8cc146100cd5780637274e30d146101035780637a2453d9146101215780638da5cb5b14610151575b600080fd5b610081600480360381019061007c9190610e5c565b61016f565b60405161008e9190610f51565b60405180910390f35b6100b160048036038101906100ac9190610e2f565b6104fb565b6040516100c49796959493929190610f6c565b60405180910390f35b6100e760048036038101906100e29190610e2f565b61077d565b6040516100fa9796959493929190610f6c565b60405180910390f35b61010b610a98565b6040516101189190610f51565b60405180910390f35b61013b60048036038101906101369190610d44565b610a9e565b6040516101489190610f51565b60405180910390f35b610159610bf8565b6040516101669190610f16565b60405180910390f35b60008060009054906101000a900473ffffffffffffffffffffffffffffffffffffffff1673ffffffffffffffffffffffffffffffffffffffff163373ffffffffffffffffffffffffffffffffffffffff1614610200576040517f08c379a00000000000000000000000000000000000000000000000000000000081526004016101f790610f31565b60405180910390fd5b6000600260008581526020019081526020016000206040518060e0016040529081600082015481526020016001820160009054906101000a900473ffffffffffffffffffffffffffffffffffffffff1673ffffffffffffffffffffffffffffffffffffffff1673ffffffffffffffffffffffffffffffffffffffff1681526020016002820180546102909061113d565b80601f01602080910402602001604051908101604052809291908181526020018280546102bc9061113d565b80156103095780601f106102de57610100808354040283529160200191610309565b820191906000526020600020905b8154815290600101906020018083116102ec57829003601f168201915b505050505081526020016003820180546103229061113d565b80601f016020809104026020016040519081016040528092919081815260200182805461034e9061113d565b801561039b5780601f106103705761010080835404028352916020019161039b565b820191906000526020600020905b81548152906001019060200180831161037e57829003601f168201915b505050505081526020016004820180546103b49061113d565b80601f01602080910402602001604051908101604052809291908181526020018280546103e09061113d565b801561042d5780601f106104025761010080835404028352916020019161042d565b820191906000526020600020905b81548152906001019060200180831161041057829003601f168201915b505050505081526020016005820180546104469061113d565b80601f01602080910402602001604051908101604052809291908181526020018280546104729061113d565b80156104bf5780601f10610494576101008083540402835291602001916104bf565b820191906000526020600020905b8154815290600101906020018083116104a257829003601f168201915b505050505081526020016006820154815250509050828160c0018181516104e69190611069565b915081815250508060c0015191505092915050565b60026020528060005260406000206000915090508060000154908060010160009054906101000a900473ffffffffffffffffffffffffffffffffffffffff169080600201805461054a9061113d565b80601f01602080910402602001604051908101604052809291908181526020018280546105769061113d565b80156105c35780601f10610598576101008083540402835291602001916105c3565b820191906000526020600020905b8154815290600101906020018083116105a657829003601f168201915b5050505050908060030180546105d89061113d565b80601f01602080910402602001604051908101604052809291908181526020018280546106049061113d565b80156106515780601f1061062657610100808354040283529160200191610651565b820191906000526020600020905b81548152906001019060200180831161063457829003601f168201915b5050505050908060040180546106669061113d565b80601f01602080910402602001604051908101604052809291908181526020018280546106929061113d565b80156106df5780601f106106b4576101008083540402835291602001916106df565b820191906000526020600020905b8154815290600101906020018083116106c257829003601f168201915b5050505050908060050180546106f49061113d565b80601f01602080910402602001604051908101604052809291908181526020018280546107209061113d565b801561076d5780601f106107425761010080835404028352916020019161076d565b820191906000526020600020905b81548152906001019060200180831161075057829003601f168201915b5050505050908060060154905087565b600080606080606080600080600260008a81526020019081526020016000206040518060e0016040529081600082015481526020016001820160009054906101000a900473ffffffffffffffffffffffffffffffffffffffff1673ffffffffffffffffffffffffffffffffffffffff1673ffffffffffffffffffffffffffffffffffffffff1681526020016002820180546108179061113d565b80601f01602080910402602001604051908101604052809291908181526020018280546108439061113d565b80156108905780601f1061086557610100808354040283529160200191610890565b820191906000526020600020905b81548152906001019060200180831161087357829003601f168201915b505050505081526020016003820180546108a99061113d565b80601f01602080910402602001604051908101604052809291908181526020018280546108d59061113d565b80156109225780601f106108f757610100808354040283529160200191610922565b820191906000526020600020905b81548152906001019060200180831161090557829003601f168201915b5050505050815260200160048201805461093b9061113d565b80601f01602080910402602001604051908101604052809291908181526020018280546109679061113d565b80156109b45780601f10610989576101008083540402835291602001916109b4565b820191906000526020600020905b81548152906001019060200180831161099757829003601f168201915b505050505081526020016005820180546109cd9061113d565b80601f01602080910402602001604051908101604052809291908181526020018280546109f99061113d565b8015610a465780601f10610a1b57610100808354040283529160200191610a46565b820191906000526020600020905b815481529060010190602001808311610a2957829003601f168201915b505050505081526020016006820154815250509050806000015181602001518260400151836060015184608001518560a001518660c00151975097509750975097509750975050919395979092949650565b60015481565b600060016000815480929190610ab3906111a0565b91905055506040518060e0016040528060015481526020013373ffffffffffffffffffffffffffffffffffffffff168152602001878152602001868152602001858152602001848152602001838152506002600060015481526020019081526020016000206000820151816000015560208201518160010160006101000a81548173ffffffffffffffffffffffffffffffffffffffff021916908373ffffffffffffffffffffffffffffffffffffffff1602179055506040820151816002019080519060200190610b85929190610c1c565b506060820151816003019080519060200190610ba2929190610c1c565b506080820151816004019080519060200190610bbf929190610c1c565b5060a0820151816005019080519060200190610bdc929190610c1c565b5060c08201518160060155905050600154905095945050505050565b60008054906101000a900473ffffffffffffffffffffffffffffffffffffffff1681565b828054610c289061113d565b90600052602060002090601f016020900481019282610c4a5760008555610c91565b82601f10610c6357805160ff1916838001178555610c91565b82800160010185558215610c91579182015b82811115610c90578251825591602001919060010190610c75565b5b509050610c9e9190610ca2565b5090565b5b80821115610cbb576000816000905550600101610ca3565b5090565b6000610cd2610ccd8461101c565b610ff7565b905082815260208101848484011115610cee57610ced61127b565b5b610cf98482856110fb565b509392505050565b600082601f830112610d1657610d15611276565b5b8135610d26848260208601610cbf565b91505092915050565b600081359050610d3e816112c4565b92915050565b600080600080600060a08688031215610d6057610d5f611285565b5b600086013567ffffffffffffffff811115610d7e57610d7d611280565b5b610d8a88828901610d01565b955050602086013567ffffffffffffffff811115610dab57610daa611280565b5b610db788828901610d01565b945050604086013567ffffffffffffffff811115610dd857610dd7611280565b5b610de488828901610d01565b935050606086013567ffffffffffffffff811115610e0557610e04611280565b5b610e1188828901610d01565b9250506080610e2288828901610d2f565b9150509295509295909350565b600060208284031215610e4557610e44611285565b5b6000610e5384828501610d2f565b91505092915050565b60008060408385031215610e7357610e72611285565b5b6000610e8185828601610d2f565b9250506020610e9285828601610d2f565b9150509250929050565b610ea5816110bf565b82525050565b6000610eb68261104d565b610ec08185611058565b9350610ed081856020860161110a565b610ed98161128a565b840191505092915050565b6000610ef1600983611058565b9150610efc8261129b565b602082019050919050565b610f10816110f1565b82525050565b6000602082019050610f2b6000830184610e9c565b92915050565b60006020820190508181036000830152610f4a81610ee4565b9050919050565b6000602082019050610f666000830184610f07565b92915050565b600060e082019050610f81600083018a610f07565b610f8e6020830189610e9c565b8181036040830152610fa08188610eab565b90508181036060830152610fb48187610eab565b90508181036080830152610fc88186610eab565b905081810360a0830152610fdc8185610eab565b9050610feb60c0830184610f07565b98975050505050505050565b6000611001611012565b905061100d828261116f565b919050565b6000604051905090565b600067ffffffffffffffff82111561103757611036611247565b5b6110408261128a565b9050602081019050919050565b600081519050919050565b600082825260208201905092915050565b6000611074826110f1565b915061107f836110f1565b9250827fffffffffffffffffffffffffffffffffffffffffffffffffffffffffffffffff038211156110b4576110b36111e9565b5b828201905092915050565b60006110ca826110d1565b9050919050565b600073ffffffffffffffffffffffffffffffffffffffff82169050919050565b6000819050919050565b82818337600083830152505050565b60005b8381101561112857808201518184015260208101905061110d565b83811115611137576000848401525b50505050565b6000600282049050600182168061115557607f821691505b6020821081141561116957611168611218565b5b50919050565b6111788261128a565b810181811067ffffffffffffffff8211171561119757611196611247565b5b80604052505050565b60006111ab826110f1565b91507fffffffffffffffffffffffffffffffffffffffffffffffffffffffffffffffff8214156111de576111dd6111e9565b5b600182019050919050565b7f4e487b7100000000000000000000000000000000000000000000000000000000600052601160045260246000fd5b7f4e487b7100000000000000000000000000000000000000000000000000000000600052602260045260246000fd5b7f4e487b7100000000000000000000000000000000000000000000000000000000600052604160045260246000fd5b600080fd5b600080fd5b600080fd5b600080fd5b6000601f19601f8301169050919050565b7f4e6f74206f776e65720000000000000000000000000000000000000000000000600082015250565b6112cd816110f1565b81146112d857600080fd5b5056fea2646970667358221220f4a8a23107b1f240c63a070cce0e989f802db7e3619368405459108f4e1a595964736f6c63430008060033",
  "linkReferences": {},
  "deployedLinkReferences": {}
}