{
  "_format": "hh-sol-artifact-1",
  "contractName": "Campaign",
  "sourceName": "contracts/Campaign.sol",
  "abi": [
    {
      "inputs": [],
      "stateMutability": "nonpayable",
      "type": "constructor"
    },
    {
      "inputs": [
        {
          "internalType": "uint256",
          "name": "_campaignId",
          "type": "uint256"
        }
      ],
      "name": "balance",
      "outputs": [
        {
          "internalType": "uint256",
          "name": "",
          "type": "uint256"
        }
      ],
      "stateMutability": "view",
      "type": "function"
    },
    {
      "inputs": [],
      "name": "campaignCount",
      "outputs": [
        {
          "internalType": "uint256",
          "name": "",
          "type": "uint256"
        }
      ],
      "stateMutability": "view",
      "type": "function"
    },
    {
      "inputs": [
        {
          "internalType": "uint256",
          "name": "",
          "type": "uint256"
        }
      ],
      "name": "campaigns",
      "outputs": [
        {
          "internalType": "uint256",
          "name": "id",
          "type": "uint256"
        },
        {
          "internalType": "address",
          "name": "creator",
          "type": "address"
        },
        {
          "internalType": "string",
          "name": "title",
          "type": "string"
        },
        {
          "internalType": "string",
          "name": "description",
          "type": "string"
        },
        {
          "internalType": "string",
          "name": "wallet",
          "type": "string"
        },
        {
          "internalType": "string",
          "name": "ipfs",
          "type": "string"
        },
        {
          "internalType": "uint256",
          "name": "money",
          "type": "uint256"
        }
      ],
      "stateMutability": "view",
      "type": "function"
    },
    {
      "inputs": [
        {
          "internalType": "string",
          "name": "_title",
          "type": "string"
        },
        {
          "internalType": "string",
          "name": "_description",
          "type": "string"
        },
        {
          "internalType": "string",
          "name": "_wallet",
          "type": "string"
        },
        {
          "internalType": "string",
          "name": "_ipfs",
          "type": "string"
        },
        {
          "internalType": "uint256",
          "name": "_money",
          "type": "uint256"
        }
      ],
      "name": "createCampaign",
      "outputs": [
        {
          "internalType": "uint256",
          "name": "",
          "type": "uint256"
        }
      ],
      "stateMutability": "nonpayable",
      "type": "function"
    },
    {
      "inputs": [
        {
          "internalType": "uint256",
          "name": "_campaignId",
          "type": "uint256"
        }
      ],
      "name": "getCampaign",
      "outputs": [
        {
          "internalType": "uint256",
          "name": "",
          "type": "uint256"
        },
        {
          "internalType": "address",
          "name": "",
          "type": "address"
        },
        {
          "internalType": "string",
          "name": "",
          "type": "string"
        },
        {
          "internalType": "string",
          "name": "",
          "type": "string"
        },
        {
          "internalType": "string",
          "name": "",
          "type": "string"
        },
        {
          "internalType": "string",
          "name": "",
          "type": "string"
        },
        {
          "internalType": "uint256",
          "name": "",
          "type": "uint256"
        }
      ],
      "stateMutability": "view",
      "type": "function"
    },
    {
      "inputs": [],
      "name": "owner",
      "outputs": [
        {
          "internalType": "address",
          "name": "",
          "type": "address"
        }
      ],
      "stateMutability": "view",
      "type": "function"
    },
    {
      "inputs": [
        {
          "internalType": "uint256",
          "name": "_campaignId",
          "type": "uint256"
        },
        {
          "internalType": "uint256",
          "name": "_amount",
          "type": "uint256"
        }
      ],
      "name": "updateAmount",
      "outputs": [],
      "stateMutability": "view",
      "type": "function"
    }
  ],
  "bytecode": "0x6080604052600060015534801561001557600080fd5b50336000806101000a81548173ffffffffffffffffffffffffffffffffffffffff021916908373ffffffffffffffffffffffffffffffffffffffff16021790555061161e806100656000396000f3fe608060405234801561001057600080fd5b506004361061007d5760003560e01c80635598f8cc1161005b5780635598f8cc146101045780637274e30d1461013a5780637a2453d9146101585780638da5cb5b146101885761007d565b80630179cc5214610082578063141961bc1461009e57806347bb89f0146100d4575b600080fd5b61009c60048036038101906100979190611169565b6101a6565b005b6100b860048036038101906100b3919061113c565b610526565b6040516100cb9796959493929190611279565b60405180910390f35b6100ee60048036038101906100e9919061113c565b6107a8565b6040516100fb919061125e565b60405180910390f35b61011e6004803603810190610119919061113c565b610a8a565b6040516101319796959493929190611279565b60405180910390f35b610142610da5565b60405161014f919061125e565b60405180910390f35b610172600480360381019061016d9190611051565b610dab565b60405161017f919061125e565b60405180910390f35b610190610f05565b60405161019d9190611223565b60405180910390f35b60008054906101000a900473ffffffffffffffffffffffffffffffffffffffff1673ffffffffffffffffffffffffffffffffffffffff163373ffffffffffffffffffffffffffffffffffffffff1614610234576040517f08c379a000000000000000000000000000000000000000000000000000000000815260040161022b9061123e565b60405180910390fd5b6000600260008481526020019081526020016000206040518060e0016040529081600082015481526020016001820160009054906101000a900473ffffffffffffffffffffffffffffffffffffffff1673ffffffffffffffffffffffffffffffffffffffff1673ffffffffffffffffffffffffffffffffffffffff1681526020016002820180546102c49061144a565b80601f01602080910402602001604051908101604052809291908181526020018280546102f09061144a565b801561033d5780601f106103125761010080835404028352916020019161033d565b820191906000526020600020905b81548152906001019060200180831161032057829003601f168201915b505050505081526020016003820180546103569061144a565b80601f01602080910402602001604051908101604052809291908181526020018280546103829061144a565b80156103cf5780601f106103a4576101008083540402835291602001916103cf565b820191906000526020600020905b8154815290600101906020018083116103b257829003601f168201915b505050505081526020016004820180546103e89061144a565b80601f01602080910402602001604051908101604052809291908181526020018280546104149061144a565b80156104615780601f1061043657610100808354040283529160200191610461565b820191906000526020600020905b81548152906001019060200180831161044457829003601f168201915b5050505050815260200160058201805461047a9061144a565b80601f01602080910402602001604051908101604052809291908181526020018280546104a69061144a565b80156104f35780601f106104c8576101008083540402835291602001916104f3565b820191906000526020600020905b8154815290600101906020018083116104d657829003601f168201915b505050505081526020016006820154815250509050818160c00181815161051a9190611376565b91508181525050505050565b60026020528060005260406000206000915090508060000154908060010160009054906101000a900473ffffffffffffffffffffffffffffffffffffffff16908060020180546105759061144a565b80601f01602080910402602001604051908101604052809291908181526020018280546105a19061144a565b80156105ee5780601f106105c3576101008083540402835291602001916105ee565b820191906000526020600020905b8154815290600101906020018083116105d157829003601f168201915b5050505050908060030180546106039061144a565b80601f016020809104026020016040519081016040528092919081815260200182805461062f9061144a565b801561067c5780601f106106515761010080835404028352916020019161067c565b820191906000526020600020905b81548152906001019060200180831161065f57829003601f168201915b5050505050908060040180546106919061144a565b80601f01602080910402602001604051908101604052809291908181526020018280546106bd9061144a565b801561070a5780601f106106df5761010080835404028352916020019161070a565b820191906000526020600020905b8154815290600101906020018083116106ed57829003601f168201915b50505050509080600501805461071f9061144a565b80601f016020809104026020016040519081016040528092919081815260200182805461074b9061144a565b80156107985780601f1061076d57610100808354040283529160200191610798565b820191906000526020600020905b81548152906001019060200180831161077b57829003601f168201915b5050505050908060060154905087565b600080600260008481526020019081526020016000206040518060e0016040529081600082015481526020016001820160009054906101000a900473ffffffffffffffffffffffffffffffffffffffff1673ffffffffffffffffffffffffffffffffffffffff1673ffffffffffffffffffffffffffffffffffffffff1681526020016002820180546108399061144a565b80601f01602080910402602001604051908101604052809291908181526020018280546108659061144a565b80156108b25780601f10610887576101008083540402835291602001916108b2565b820191906000526020600020905b81548152906001019060200180831161089557829003601f168201915b505050505081526020016003820180546108cb9061144a565b80601f01602080910402602001604051908101604052809291908181526020018280546108f79061144a565b80156109445780601f1061091957610100808354040283529160200191610944565b820191906000526020600020905b81548152906001019060200180831161092757829003601f168201915b5050505050815260200160048201805461095d9061144a565b80601f01602080910402602001604051908101604052809291908181526020018280546109899061144a565b80156109d65780601f106109ab576101008083540402835291602001916109d6565b820191906000526020600020905b8154815290600101906020018083116109b957829003601f168201915b505050505081526020016005820180546109ef9061144a565b80601f0160208091040260200160405190810160405280929190818152602001828054610a1b9061144a565b8015610a685780601f10610a3d57610100808354040283529160200191610a68565b820191906000526020600020905b815481529060010190602001808311610a4b57829003601f168201915b5050505050815260200160068201548152505090508060c00151915050919050565b600080606080606080600080600260008a81526020019081526020016000206040518060e0016040529081600082015481526020016001820160009054906101000a900473ffffffffffffffffffffffffffffffffffffffff1673ffffffffffffffffffffffffffffffffffffffff1673ffffffffffffffffffffffffffffffffffffffff168152602001600282018054610b249061144a565b80601f0160208091040260200160405190810160405280929190818152602001828054610b509061144a565b8015610b9d5780601f10610b7257610100808354040283529160200191610b9d565b820191906000526020600020905b815481529060010190602001808311610b8057829003601f168201915b50505050508152602001600382018054610bb69061144a565b80601f0160208091040260200160405190810160405280929190818152602001828054610be29061144a565b8015610c2f5780601f10610c0457610100808354040283529160200191610c2f565b820191906000526020600020905b815481529060010190602001808311610c1257829003601f168201915b50505050508152602001600482018054610c489061144a565b80601f0160208091040260200160405190810160405280929190818152602001828054610c749061144a565b8015610cc15780601f10610c9657610100808354040283529160200191610cc1565b820191906000526020600020905b815481529060010190602001808311610ca457829003601f168201915b50505050508152602001600582018054610cda9061144a565b80601f0160208091040260200160405190810160405280929190818152602001828054610d069061144a565b8015610d535780601f10610d2857610100808354040283529160200191610d53565b820191906000526020600020905b815481529060010190602001808311610d3657829003601f168201915b505050505081526020016006820154815250509050806000015181602001518260400151836060015184608001518560a001518660c00151975097509750975097509750975050919395979092949650565b60015481565b600060016000815480929190610dc0906114ad565b91905055506040518060e0016040528060015481526020013373ffffffffffffffffffffffffffffffffffffffff168152602001878152602001868152602001858152602001848152602001838152506002600060015481526020019081526020016000206000820151816000015560208201518160010160006101000a81548173ffffffffffffffffffffffffffffffffffffffff021916908373ffffffffffffffffffffffffffffffffffffffff1602179055506040820151816002019080519060200190610e92929190610f29565b506060820151816003019080519060200190610eaf929190610f29565b506080820151816004019080519060200190610ecc929190610f29565b5060a0820151816005019080519060200190610ee9929190610f29565b5060c08201518160060155905050600154905095945050505050565b60008054906101000a900473ffffffffffffffffffffffffffffffffffffffff1681565b828054610f359061144a565b90600052602060002090601f016020900481019282610f575760008555610f9e565b82601f10610f7057805160ff1916838001178555610f9e565b82800160010185558215610f9e579182015b82811115610f9d578251825591602001919060010190610f82565b5b509050610fab9190610faf565b5090565b5b80821115610fc8576000816000905550600101610fb0565b5090565b6000610fdf610fda84611329565b611304565b905082815260208101848484011115610ffb57610ffa611588565b5b611006848285611408565b509392505050565b600082601f83011261102357611022611583565b5b8135611033848260208601610fcc565b91505092915050565b60008135905061104b816115d1565b92915050565b600080600080600060a0868803121561106d5761106c611592565b5b600086013567ffffffffffffffff81111561108b5761108a61158d565b5b6110978882890161100e565b955050602086013567ffffffffffffffff8111156110b8576110b761158d565b5b6110c48882890161100e565b945050604086013567ffffffffffffffff8111156110e5576110e461158d565b5b6110f18882890161100e565b935050606086013567ffffffffffffffff8111156111125761111161158d565b5b61111e8882890161100e565b925050608061112f8882890161103c565b9150509295509295909350565b60006020828403121561115257611151611592565b5b60006111608482850161103c565b91505092915050565b600080604083850312156111805761117f611592565b5b600061118e8582860161103c565b925050602061119f8582860161103c565b9150509250929050565b6111b2816113cc565b82525050565b60006111c38261135a565b6111cd8185611365565b93506111dd818560208601611417565b6111e681611597565b840191505092915050565b60006111fe600983611365565b9150611209826115a8565b602082019050919050565b61121d816113fe565b82525050565b600060208201905061123860008301846111a9565b92915050565b60006020820190508181036000830152611257816111f1565b9050919050565b60006020820190506112736000830184611214565b92915050565b600060e08201905061128e600083018a611214565b61129b60208301896111a9565b81810360408301526112ad81886111b8565b905081810360608301526112c181876111b8565b905081810360808301526112d581866111b8565b905081810360a08301526112e981856111b8565b90506112f860c0830184611214565b98975050505050505050565b600061130e61131f565b905061131a828261147c565b919050565b6000604051905090565b600067ffffffffffffffff82111561134457611343611554565b5b61134d82611597565b9050602081019050919050565b600081519050919050565b600082825260208201905092915050565b6000611381826113fe565b915061138c836113fe565b9250827fffffffffffffffffffffffffffffffffffffffffffffffffffffffffffffffff038211156113c1576113c06114f6565b5b828201905092915050565b60006113d7826113de565b9050919050565b600073ffffffffffffffffffffffffffffffffffffffff82169050919050565b6000819050919050565b82818337600083830152505050565b60005b8381101561143557808201518184015260208101905061141a565b83811115611444576000848401525b50505050565b6000600282049050600182168061146257607f821691505b6020821081141561147657611475611525565b5b50919050565b61148582611597565b810181811067ffffffffffffffff821117156114a4576114a3611554565b5b80604052505050565b60006114b8826113fe565b91507fffffffffffffffffffffffffffffffffffffffffffffffffffffffffffffffff8214156114eb576114ea6114f6565b5b600182019050919050565b7f4e487b7100000000000000000000000000000000000000000000000000000000600052601160045260246000fd5b7f4e487b7100000000000000000000000000000000000000000000000000000000600052602260045260246000fd5b7f4e487b7100000000000000000000000000000000000000000000000000000000600052604160045260246000fd5b600080fd5b600080fd5b600080fd5b600080fd5b6000601f19601f8301169050919050565b7f4e6f74206f776e65720000000000000000000000000000000000000000000000600082015250565b6115da816113fe565b81146115e557600080fd5b5056fea26469706673582212202c1ce639b0d597bb7097b017c1bdc72810496ac0eee0f14c7edc57d3fd5289ce64736f6c63430008060033",
  "linkReferences": {},
  "deployedLinkReferences": {}
}