{
  "_format": "hh-sol-artifact-1",
  "contractName": "Campaign",
  "sourceName": "contracts/Campaign.sol",
  "abi": [
    {
      "inputs": [],
      "stateMutability": "nonpayable",
      "type": "constructor"
    },
    {
      "inputs": [
        {
          "internalType": "uint256",
          "name": "_campaignId",
          "type": "uint256"
        }
      ],
      "name": "balance",
      "outputs": [
        {
          "internalType": "uint256",
          "name": "",
          "type": "uint256"
        }
      ],
      "stateMutability": "view",
      "type": "function"
    },
    {
      "inputs": [],
      "name": "campaignCount",
      "outputs": [
        {
          "internalType": "uint256",
          "name": "",
          "type": "uint256"
        }
      ],
      "stateMutability": "view",
      "type": "function"
    },
    {
      "inputs": [
        {
          "internalType": "uint256",
          "name": "",
          "type": "uint256"
        }
      ],
      "name": "campaigns",
      "outputs": [
        {
          "internalType": "uint256",
          "name": "id",
          "type": "uint256"
        },
        {
          "internalType": "address",
          "name": "creator",
          "type": "address"
        },
        {
          "internalType": "string",
          "name": "title",
          "type": "string"
        },
        {
          "internalType": "string",
          "name": "description",
          "type": "string"
        },
        {
          "internalType": "string",
          "name": "wallet",
          "type": "string"
        },
        {
          "internalType": "string",
          "name": "ipfs",
          "type": "string"
        },
        {
          "internalType": "uint256",
          "name": "money",
          "type": "uint256"
        }
      ],
      "stateMutability": "view",
      "type": "function"
    },
    {
      "inputs": [
        {
          "internalType": "string",
          "name": "_title",
          "type": "string"
        },
        {
          "internalType": "string",
          "name": "_description",
          "type": "string"
        },
        {
          "internalType": "string",
          "name": "_wallet",
          "type": "string"
        },
        {
          "internalType": "string",
          "name": "_ipfs",
          "type": "string"
        },
        {
          "internalType": "uint256",
          "name": "_money",
          "type": "uint256"
        }
      ],
      "name": "createCampaign",
      "outputs": [
        {
          "internalType": "uint256",
          "name": "",
          "type": "uint256"
        }
      ],
      "stateMutability": "nonpayable",
      "type": "function"
    },
    {
      "inputs": [
        {
          "internalType": "uint256",
          "name": "_campaignId",
          "type": "uint256"
        }
      ],
      "name": "getCampaign",
      "outputs": [
        {
          "internalType": "uint256",
          "name": "",
          "type": "uint256"
        },
        {
          "internalType": "address",
          "name": "",
          "type": "address"
        },
        {
          "internalType": "string",
          "name": "",
          "type": "string"
        },
        {
          "internalType": "string",
          "name": "",
          "type": "string"
        },
        {
          "internalType": "string",
          "name": "",
          "type": "string"
        },
        {
          "internalType": "string",
          "name": "",
          "type": "string"
        },
        {
          "internalType": "uint256",
          "name": "",
          "type": "uint256"
        }
      ],
      "stateMutability": "view",
      "type": "function"
    },
    {
      "inputs": [],
      "name": "owner",
      "outputs": [
        {
          "internalType": "address",
          "name": "",
          "type": "address"
        }
      ],
      "stateMutability": "view",
      "type": "function"
    },
    {
      "inputs": [
        {
          "internalType": "uint256",
          "name": "_campaignId",
          "type": "uint256"
        },
        {
          "internalType": "uint256",
          "name": "_amount",
          "type": "uint256"
        }
      ],
      "name": "updateAmount",
      "outputs": [],
      "stateMutability": "nonpayable",
      "type": "function"
    }
  ],
  "bytecode": "0x6080604052600060015534801561001557600080fd5b50336000806101000a81548173ffffffffffffffffffffffffffffffffffffffff021916908373ffffffffffffffffffffffffffffffffffffffff16021790555061135d806100656000396000f3fe608060405234801561001057600080fd5b506004361061007d5760003560e01c80635598f8cc1161005b5780635598f8cc146101045780637274e30d1461013a5780637a2453d9146101585780638da5cb5b146101885761007d565b80630179cc5214610082578063141961bc1461009e57806347bb89f0146100d4575b600080fd5b61009c60048036038101906100979190610ea8565b6101a6565b005b6100b860048036038101906100b39190610e7b565b610265565b6040516100cb9796959493929190610fb8565b60405180910390f35b6100ee60048036038101906100e99190610e7b565b6104e7565b6040516100fb9190610f9d565b60405180910390f35b61011e60048036038101906101199190610e7b565b6107c9565b6040516101319796959493929190610fb8565b60405180910390f35b610142610ae4565b60405161014f9190610f9d565b60405180910390f35b610172600480360381019061016d9190610d90565b610aea565b60405161017f9190610f9d565b60405180910390f35b610190610c44565b60405161019d9190610f62565b60405180910390f35b60008054906101000a900473ffffffffffffffffffffffffffffffffffffffff1673ffffffffffffffffffffffffffffffffffffffff163373ffffffffffffffffffffffffffffffffffffffff1614610234576040517f08c379a000000000000000000000000000000000000000000000000000000000815260040161022b90610f7d565b60405180910390fd5b8060026000848152602001908152602001600020600601600082825461025a91906110b5565b925050819055505050565b60026020528060005260406000206000915090508060000154908060010160009054906101000a900473ffffffffffffffffffffffffffffffffffffffff16908060020180546102b490611189565b80601f01602080910402602001604051908101604052809291908181526020018280546102e090611189565b801561032d5780601f106103025761010080835404028352916020019161032d565b820191906000526020600020905b81548152906001019060200180831161031057829003601f168201915b50505050509080600301805461034290611189565b80601f016020809104026020016040519081016040528092919081815260200182805461036e90611189565b80156103bb5780601f10610390576101008083540402835291602001916103bb565b820191906000526020600020905b81548152906001019060200180831161039e57829003601f168201915b5050505050908060040180546103d090611189565b80601f01602080910402602001604051908101604052809291908181526020018280546103fc90611189565b80156104495780601f1061041e57610100808354040283529160200191610449565b820191906000526020600020905b81548152906001019060200180831161042c57829003601f168201915b50505050509080600501805461045e90611189565b80601f016020809104026020016040519081016040528092919081815260200182805461048a90611189565b80156104d75780601f106104ac576101008083540402835291602001916104d7565b820191906000526020600020905b8154815290600101906020018083116104ba57829003601f168201915b5050505050908060060154905087565b600080600260008481526020019081526020016000206040518060e0016040529081600082015481526020016001820160009054906101000a900473ffffffffffffffffffffffffffffffffffffffff1673ffffffffffffffffffffffffffffffffffffffff1673ffffffffffffffffffffffffffffffffffffffff16815260200160028201805461057890611189565b80601f01602080910402602001604051908101604052809291908181526020018280546105a490611189565b80156105f15780601f106105c6576101008083540402835291602001916105f1565b820191906000526020600020905b8154815290600101906020018083116105d457829003601f168201915b5050505050815260200160038201805461060a90611189565b80601f016020809104026020016040519081016040528092919081815260200182805461063690611189565b80156106835780601f1061065857610100808354040283529160200191610683565b820191906000526020600020905b81548152906001019060200180831161066657829003601f168201915b5050505050815260200160048201805461069c90611189565b80601f01602080910402602001604051908101604052809291908181526020018280546106c890611189565b80156107155780601f106106ea57610100808354040283529160200191610715565b820191906000526020600020905b8154815290600101906020018083116106f857829003601f168201915b5050505050815260200160058201805461072e90611189565b80601f016020809104026020016040519081016040528092919081815260200182805461075a90611189565b80156107a75780601f1061077c576101008083540402835291602001916107a7565b820191906000526020600020905b81548152906001019060200180831161078a57829003601f168201915b5050505050815260200160068201548152505090508060c00151915050919050565b600080606080606080600080600260008a81526020019081526020016000206040518060e0016040529081600082015481526020016001820160009054906101000a900473ffffffffffffffffffffffffffffffffffffffff1673ffffffffffffffffffffffffffffffffffffffff1673ffffffffffffffffffffffffffffffffffffffff16815260200160028201805461086390611189565b80601f016020809104026020016040519081016040528092919081815260200182805461088f90611189565b80156108dc5780601f106108b1576101008083540402835291602001916108dc565b820191906000526020600020905b8154815290600101906020018083116108bf57829003601f168201915b505050505081526020016003820180546108f590611189565b80601f016020809104026020016040519081016040528092919081815260200182805461092190611189565b801561096e5780601f106109435761010080835404028352916020019161096e565b820191906000526020600020905b81548152906001019060200180831161095157829003601f168201915b5050505050815260200160048201805461098790611189565b80601f01602080910402602001604051908101604052809291908181526020018280546109b390611189565b8015610a005780601f106109d557610100808354040283529160200191610a00565b820191906000526020600020905b8154815290600101906020018083116109e357829003601f168201915b50505050508152602001600582018054610a1990611189565b80601f0160208091040260200160405190810160405280929190818152602001828054610a4590611189565b8015610a925780601f10610a6757610100808354040283529160200191610a92565b820191906000526020600020905b815481529060010190602001808311610a7557829003601f168201915b505050505081526020016006820154815250509050806000015181602001518260400151836060015184608001518560a001518660c00151975097509750975097509750975050919395979092949650565b60015481565b600060016000815480929190610aff906111ec565b91905055506040518060e0016040528060015481526020013373ffffffffffffffffffffffffffffffffffffffff168152602001878152602001868152602001858152602001848152602001838152506002600060015481526020019081526020016000206000820151816000015560208201518160010160006101000a81548173ffffffffffffffffffffffffffffffffffffffff021916908373ffffffffffffffffffffffffffffffffffffffff1602179055506040820151816002019080519060200190610bd1929190610c68565b506060820151816003019080519060200190610bee929190610c68565b506080820151816004019080519060200190610c0b929190610c68565b5060a0820151816005019080519060200190610c28929190610c68565b5060c08201518160060155905050600154905095945050505050565b60008054906101000a900473ffffffffffffffffffffffffffffffffffffffff1681565b828054610c7490611189565b90600052602060002090601f016020900481019282610c965760008555610cdd565b82601f10610caf57805160ff1916838001178555610cdd565b82800160010185558215610cdd579182015b82811115610cdc578251825591602001919060010190610cc1565b5b509050610cea9190610cee565b5090565b5b80821115610d07576000816000905550600101610cef565b5090565b6000610d1e610d1984611068565b611043565b905082815260208101848484011115610d3a57610d396112c7565b5b610d45848285611147565b509392505050565b600082601f830112610d6257610d616112c2565b5b8135610d72848260208601610d0b565b91505092915050565b600081359050610d8a81611310565b92915050565b600080600080600060a08688031215610dac57610dab6112d1565b5b600086013567ffffffffffffffff811115610dca57610dc96112cc565b5b610dd688828901610d4d565b955050602086013567ffffffffffffffff811115610df757610df66112cc565b5b610e0388828901610d4d565b945050604086013567ffffffffffffffff811115610e2457610e236112cc565b5b610e3088828901610d4d565b935050606086013567ffffffffffffffff811115610e5157610e506112cc565b5b610e5d88828901610d4d565b9250506080610e6e88828901610d7b565b9150509295509295909350565b600060208284031215610e9157610e906112d1565b5b6000610e9f84828501610d7b565b91505092915050565b60008060408385031215610ebf57610ebe6112d1565b5b6000610ecd85828601610d7b565b9250506020610ede85828601610d7b565b9150509250929050565b610ef18161110b565b82525050565b6000610f0282611099565b610f0c81856110a4565b9350610f1c818560208601611156565b610f25816112d6565b840191505092915050565b6000610f3d6009836110a4565b9150610f48826112e7565b602082019050919050565b610f5c8161113d565b82525050565b6000602082019050610f776000830184610ee8565b92915050565b60006020820190508181036000830152610f9681610f30565b9050919050565b6000602082019050610fb26000830184610f53565b92915050565b600060e082019050610fcd600083018a610f53565b610fda6020830189610ee8565b8181036040830152610fec8188610ef7565b905081810360608301526110008187610ef7565b905081810360808301526110148186610ef7565b905081810360a08301526110288185610ef7565b905061103760c0830184610f53565b98975050505050505050565b600061104d61105e565b905061105982826111bb565b919050565b6000604051905090565b600067ffffffffffffffff82111561108357611082611293565b5b61108c826112d6565b9050602081019050919050565b600081519050919050565b600082825260208201905092915050565b60006110c08261113d565b91506110cb8361113d565b9250827fffffffffffffffffffffffffffffffffffffffffffffffffffffffffffffffff03821115611100576110ff611235565b5b828201905092915050565b60006111168261111d565b9050919050565b600073ffffffffffffffffffffffffffffffffffffffff82169050919050565b6000819050919050565b82818337600083830152505050565b60005b83811015611174578082015181840152602081019050611159565b83811115611183576000848401525b50505050565b600060028204905060018216806111a157607f821691505b602082108114156111b5576111b4611264565b5b50919050565b6111c4826112d6565b810181811067ffffffffffffffff821117156111e3576111e2611293565b5b80604052505050565b60006111f78261113d565b91507fffffffffffffffffffffffffffffffffffffffffffffffffffffffffffffffff82141561122a57611229611235565b5b600182019050919050565b7f4e487b7100000000000000000000000000000000000000000000000000000000600052601160045260246000fd5b7f4e487b7100000000000000000000000000000000000000000000000000000000600052602260045260246000fd5b7f4e487b7100000000000000000000000000000000000000000000000000000000600052604160045260246000fd5b600080fd5b600080fd5b600080fd5b600080fd5b6000601f19601f8301169050919050565b7f4e6f74206f776e65720000000000000000000000000000000000000000000000600082015250565b6113198161113d565b811461132457600080fd5b5056fea264697066735822122036754ec678a6305d40e436048a18f5b647f95d9a1bb11fb5c32a9e3f767425bc64736f6c63430008060033",
  "linkReferences": {},
  "deployedLinkReferences": {}
}