{
  "_format": "hh-sol-artifact-1",
  "contractName": "Campaign",
  "sourceName": "contracts/Campaign.sol",
  "abi": [
    {
      "inputs": [],
      "name": "campaignCount",
      "outputs": [
        {
          "internalType": "uint256",
          "name": "",
          "type": "uint256"
        }
      ],
      "stateMutability": "view",
      "type": "function"
    },
    {
      "inputs": [
        {
          "internalType": "uint256",
          "name": "",
          "type": "uint256"
        }
      ],
      "name": "campaigns",
      "outputs": [
        {
          "internalType": "uint256",
          "name": "id",
          "type": "uint256"
        },
        {
          "internalType": "address",
          "name": "creator",
          "type": "address"
        },
        {
          "internalType": "string",
          "name": "title",
          "type": "string"
        },
        {
          "internalType": "string",
          "name": "description",
          "type": "string"
        },
        {
          "internalType": "string",
          "name": "wallet",
          "type": "string"
        },
        {
          "internalType": "string",
          "name": "ipfs",
          "type": "string"
        },
        {
          "internalType": "uint256",
          "name": "money",
          "type": "uint256"
        }
      ],
      "stateMutability": "view",
      "type": "function"
    },
    {
      "inputs": [
        {
          "internalType": "string",
          "name": "_title",
          "type": "string"
        },
        {
          "internalType": "string",
          "name": "_description",
          "type": "string"
        },
        {
          "internalType": "string",
          "name": "_wallet",
          "type": "string"
        },
        {
          "internalType": "string",
          "name": "_ipfs",
          "type": "string"
        },
        {
          "internalType": "uint256",
          "name": "_money",
          "type": "uint256"
        }
      ],
      "name": "createCampaign",
      "outputs": [
        {
          "internalType": "uint256",
          "name": "",
          "type": "uint256"
        }
      ],
      "stateMutability": "nonpayable",
      "type": "function"
    },
    {
      "inputs": [
        {
          "internalType": "uint256",
          "name": "_campaignId",
          "type": "uint256"
        }
      ],
      "name": "getCampaign",
      "outputs": [
        {
          "internalType": "uint256",
          "name": "",
          "type": "uint256"
        },
        {
          "internalType": "address",
          "name": "",
          "type": "address"
        },
        {
          "internalType": "string",
          "name": "",
          "type": "string"
        },
        {
          "internalType": "string",
          "name": "",
          "type": "string"
        },
        {
          "internalType": "string",
          "name": "",
          "type": "string"
        },
        {
          "internalType": "string",
          "name": "",
          "type": "string"
        },
        {
          "internalType": "uint256",
          "name": "",
          "type": "uint256"
        }
      ],
      "stateMutability": "view",
      "type": "function"
    }
  ],
  "bytecode": "0x60806040526000805534801561001457600080fd5b50610dde806100246000396000f3fe608060405234801561001057600080fd5b506004361061004c5760003560e01c8063141961bc146100515780635598f8cc146100875780637274e30d146100bd5780637a2453d9146100db575b600080fd5b61006b60048036038101906100669190610a19565b61010b565b60405161007e9796959493929190610ab8565b60405180910390f35b6100a1600480360381019061009c9190610a19565b61038d565b6040516100b49796959493929190610ab8565b60405180910390f35b6100c56106a8565b6040516100d29190610a9d565b60405180910390f35b6100f560048036038101906100f0919061092e565b6106ae565b6040516101029190610a9d565b60405180910390f35b60016020528060005260406000206000915090508060000154908060010160009054906101000a900473ffffffffffffffffffffffffffffffffffffffff169080600201805461015a90610c33565b80601f016020809104026020016040519081016040528092919081815260200182805461018690610c33565b80156101d35780601f106101a8576101008083540402835291602001916101d3565b820191906000526020600020905b8154815290600101906020018083116101b657829003601f168201915b5050505050908060030180546101e890610c33565b80601f016020809104026020016040519081016040528092919081815260200182805461021490610c33565b80156102615780601f1061023657610100808354040283529160200191610261565b820191906000526020600020905b81548152906001019060200180831161024457829003601f168201915b50505050509080600401805461027690610c33565b80601f01602080910402602001604051908101604052809291908181526020018280546102a290610c33565b80156102ef5780601f106102c4576101008083540402835291602001916102ef565b820191906000526020600020905b8154815290600101906020018083116102d257829003601f168201915b50505050509080600501805461030490610c33565b80601f016020809104026020016040519081016040528092919081815260200182805461033090610c33565b801561037d5780601f106103525761010080835404028352916020019161037d565b820191906000526020600020905b81548152906001019060200180831161036057829003601f168201915b5050505050908060060154905087565b600080606080606080600080600160008a81526020019081526020016000206040518060e0016040529081600082015481526020016001820160009054906101000a900473ffffffffffffffffffffffffffffffffffffffff1673ffffffffffffffffffffffffffffffffffffffff1673ffffffffffffffffffffffffffffffffffffffff16815260200160028201805461042790610c33565b80601f016020809104026020016040519081016040528092919081815260200182805461045390610c33565b80156104a05780601f10610475576101008083540402835291602001916104a0565b820191906000526020600020905b81548152906001019060200180831161048357829003601f168201915b505050505081526020016003820180546104b990610c33565b80601f01602080910402602001604051908101604052809291908181526020018280546104e590610c33565b80156105325780601f1061050757610100808354040283529160200191610532565b820191906000526020600020905b81548152906001019060200180831161051557829003601f168201915b5050505050815260200160048201805461054b90610c33565b80601f016020809104026020016040519081016040528092919081815260200182805461057790610c33565b80156105c45780601f10610599576101008083540402835291602001916105c4565b820191906000526020600020905b8154815290600101906020018083116105a757829003601f168201915b505050505081526020016005820180546105dd90610c33565b80601f016020809104026020016040519081016040528092919081815260200182805461060990610c33565b80156106565780601f1061062b57610100808354040283529160200191610656565b820191906000526020600020905b81548152906001019060200180831161063957829003601f168201915b505050505081526020016006820154815250509050806000015181602001518260400151836060015184608001518560a001518660c00151975097509750975097509750975050919395979092949650565b60005481565b60008060008154809291906106c290610c96565b91905055506040518060e0016040528060005481526020013373ffffffffffffffffffffffffffffffffffffffff1681526020018781526020018681526020018581526020018481526020018381525060016000805481526020019081526020016000206000820151816000015560208201518160010160006101000a81548173ffffffffffffffffffffffffffffffffffffffff021916908373ffffffffffffffffffffffffffffffffffffffff1602179055506040820151816002019080519060200190610793929190610806565b5060608201518160030190805190602001906107b0929190610806565b5060808201518160040190805190602001906107cd929190610806565b5060a08201518160050190805190602001906107ea929190610806565b5060c08201518160060155905050600054905095945050505050565b82805461081290610c33565b90600052602060002090601f016020900481019282610834576000855561087b565b82601f1061084d57805160ff191683800117855561087b565b8280016001018555821561087b579182015b8281111561087a57825182559160200191906001019061085f565b5b509050610888919061088c565b5090565b5b808211156108a557600081600090555060010161088d565b5090565b60006108bc6108b784610b68565b610b43565b9050828152602081018484840111156108d8576108d7610d71565b5b6108e3848285610bf1565b509392505050565b600082601f830112610900576108ff610d6c565b5b81356109108482602086016108a9565b91505092915050565b60008135905061092881610d91565b92915050565b600080600080600060a0868803121561094a57610949610d7b565b5b600086013567ffffffffffffffff81111561096857610967610d76565b5b610974888289016108eb565b955050602086013567ffffffffffffffff81111561099557610994610d76565b5b6109a1888289016108eb565b945050604086013567ffffffffffffffff8111156109c2576109c1610d76565b5b6109ce888289016108eb565b935050606086013567ffffffffffffffff8111156109ef576109ee610d76565b5b6109fb888289016108eb565b9250506080610a0c88828901610919565b9150509295509295909350565b600060208284031215610a2f57610a2e610d7b565b5b6000610a3d84828501610919565b91505092915050565b610a4f81610bb5565b82525050565b6000610a6082610b99565b610a6a8185610ba4565b9350610a7a818560208601610c00565b610a8381610d80565b840191505092915050565b610a9781610be7565b82525050565b6000602082019050610ab26000830184610a8e565b92915050565b600060e082019050610acd600083018a610a8e565b610ada6020830189610a46565b8181036040830152610aec8188610a55565b90508181036060830152610b008187610a55565b90508181036080830152610b148186610a55565b905081810360a0830152610b288185610a55565b9050610b3760c0830184610a8e565b98975050505050505050565b6000610b4d610b5e565b9050610b598282610c65565b919050565b6000604051905090565b600067ffffffffffffffff821115610b8357610b82610d3d565b5b610b8c82610d80565b9050602081019050919050565b600081519050919050565b600082825260208201905092915050565b6000610bc082610bc7565b9050919050565b600073ffffffffffffffffffffffffffffffffffffffff82169050919050565b6000819050919050565b82818337600083830152505050565b60005b83811015610c1e578082015181840152602081019050610c03565b83811115610c2d576000848401525b50505050565b60006002820490506001821680610c4b57607f821691505b60208210811415610c5f57610c5e610d0e565b5b50919050565b610c6e82610d80565b810181811067ffffffffffffffff82111715610c8d57610c8c610d3d565b5b80604052505050565b6000610ca182610be7565b91507fffffffffffffffffffffffffffffffffffffffffffffffffffffffffffffffff821415610cd457610cd3610cdf565b5b600182019050919050565b7f4e487b7100000000000000000000000000000000000000000000000000000000600052601160045260246000fd5b7f4e487b7100000000000000000000000000000000000000000000000000000000600052602260045260246000fd5b7f4e487b7100000000000000000000000000000000000000000000000000000000600052604160045260246000fd5b600080fd5b600080fd5b600080fd5b600080fd5b6000601f19601f8301169050919050565b610d9a81610be7565b8114610da557600080fd5b5056fea26469706673582212205886807f5d9b3c40db9d96afe92331a97208b67e88857f9d81683b2b067803c564736f6c63430008060033",
  "linkReferences": {},
  "deployedLinkReferences": {}
}